:100000000C944C010C9469010C9469010C940D043E
:100010000C9469010C9469010C9469010C946901B8
:100020000C9469010C9469010C949E080C94D808F6
:100030000C9469010C9469010C9469010C94690198
:100040000C9469010C9469010C9469010C94690188
:100050000C9469010C9469010C9469010C94690178
:100060000C9469010C9469010C9469010C94690168
:100070000C9469010C9469010C9469010C94690158
:100080000C943C040C9469010C9469010C94690172
:100090000C9469010C9469010C9469010C94690138
:1000A0000C9469010C9469010C9469013F083C08A7
:1000B00039083608330830082D082A08270824088C
:1000C00021081E081B081808150812080F080C083C
:1000D0000908060803080008FD07FA07F707F407F0
:1000E000F107EE07EB07E807E507E207DF07DC07A4
:1000F000D907D607D307D007CD07CA07C707C40754
:10010000C107BE07BB07B807B507B207AF07AC0703
:10011000A907A607A307A0079D079A0797079407B3
:1001200091078E078B078807850782077F07464957
:1001300052450A0D0053696E676C65204A6F7973EA
:100140007469636B2044726976696E670900446F55
:1001500075626C65204A6F79737469636B204472B1
:100160006976696E6709004D6172696F204B617233
:100170007420524143494E4721090054414E4B20BF
:100180004D4F4445212009004E6F206D6F64652E50
:100190002E2E3F200900427574746F6E20523A096A
:1001A00000206F6E006F6666000900427574746F00
:1001B0006E204C3A0900206F6E006F666600097071
:1001C0006F743A20000900094C204D6F746F722043
:1001D0003D3A20000952204D6F746F72203D3A2045
:1001E000000D0A0000010000180212000200002A9F
:1001F0000243000300006D020401030904710212AE
:1002000002030904850206030309048D02080001A4
:10021000C112018036018136120100020200001075
:10022000C0167A0400010102030109024300020121
:1002300000C0320904000001020201000524001080
:10024000010524010101042402060524060001071A
:1002500005820310004009040100020A00000007A3
:100260000503024000000705840240000004030962
:100270000412034A002E0020004600690065006E4B
:10028000006500000006034D003200000008033442
:10029000003100300000000011241FBECFEFDAE073
:1002A000DEBFCDBF11E0A0E0B1E0EAEEF9E202C0AE
:1002B00005900D92A431B107D9F711E0A4E1B1E0A6
:1002C00001C01D92AF33B107E1F70E947D130C947A
:1002D000F3140C9400004F925F926F927F928F9272
:1002E0009F92AF92BF92CF92DF92EF92FF920F93C5
:1002F0001F93CF93DF938C012B01C42F822EC090CC
:100300000101D0900201E0900301F0900401A701E7
:10031000960160E070E080E89FE30E948D10962EC9
:10032000A72EB82ED92FB801882777FD8095982F52
:100330000E94A211A70196010E94BD100E94FE1109
:100340003B0160911D0170911E01882777FD80950A
:10035000982F0E94A211292D3A2D4B2D5D2F0E941E
:10036000BD100E94FE11660E771EB201882777FD30
:100370008095982F0E94A211A70196010E94BD109E
:100380000E94FE118B0160911F017091200188274E
:1003900077FD8095982F0E94A211292D3A2D4B2D83
:1003A0005D2F0E94BD100E94FE11600F711F7092A0
:1003B0001E0160921D017093200160931F01693C32
:1003C0008FEF78072CF488EC90E0861B970B06C023
:1003D0006833710544F0CB0188539F4F90938B0095
:1003E00080938A0004C010928B0010928A0089ECDE
:1003F00068168FEF780654F488EC90E08619970918
:1004000090938D0080938C00469A15C088E36816FF
:10041000710444F088EC680E711C70928D0060923B
:100420008C0008C010928D0010928C0087E3681633
:1004300071040CF046986733710514F0479804C0B6
:10044000693C7F4F0CF4479A87FE03C05E9A8F9AEF
:1004500006C0882019F05E9A8F9801C05E98C7FF89
:1004600003C05F9A8E9A06C0CC2319F05F9A8E98CB
:1004700001C05F98DF91CF911F910F91FF90EF9096
:10048000DF90CF90BF90AF909F908F907F906F90B4
:100490005F904F900895E0913001F09131012091EB
:1004A000340130913501C901880F991F820F931FC4
:1004B00097FD019695958795609132017091330172
:1004C00040913601509137019A01220F331F240FBA
:1004D000351F37FF02C02F5F3F4FA9015595479544
:1004E000693C71052CF468337F4F24F42FEF03C06F
:1004F00021E001C020E0493C51052CF448335F4F16
:1005000024F44FEF03C041E001C040E0E53F61E06B
:10051000F60754F4EC307EEFF7078CF0EE0FFF1F78
:100520001E161F061CF006C0E7EEF3E018161906AB
:10053000B4F419C0EE3C3FEFF30774F402C0E9E1F4
:10054000FCEFBF01181619061CF4680F791F0EC0C6
:10055000681B790BCB0105C01816190624F48E0F01
:100560009F1FBF0104C0BF01681B790BCF010C9412
:100570006B014F925F926F927F92AF92BF92CF9238
:10058000DF92EF92FF920F931F93CF93DF935C0163
:100590002B01C0900101D0900201E0900301F09086
:1005A0000401A701960160E070E080E89FE30E94EB
:1005B0008D108B01D82FC92FB501882777FD809525
:1005C000982F0E94A211A70196010E94BD100E94BF
:1005D000FE113B0160911D0170911E01882777FD7E
:1005E0008095982F0E94A211FE01202F312F4F2FAE
:1005F0005E2F0E94BD100E94FE11660E771EB20192
:10060000882777FD8095982F0E94A211A701960157
:100610000E94BD100E94FE117B0160911F0170912C
:100620002001882777FD8095982F0E94A211FE0156
:10063000202F312F4F2F5E2F0E94BD100E94FE11E0
:100640006E0D7F1D70921E0160921D01709320013E
:1006500060931F01693C8FEF78072CF488EC90E0E1
:10066000861B970B06C06833710544F0CB01885395
:100670009F4F90938B0080938A0004C010928B0050
:1006800010928A0089EC68168FEF780654F488EC93
:1006900090E08619970990938D0080938C0046987E
:1006A00015C088E36816710444F088EC680E711C6C
:1006B00070928D0060928C0008C010928D00109294
:1006C0008C0087E3681671040CF0469A6733710555
:1006D00014F0479A04C0693C7F4F0CF44798DF91AF
:1006E000CF911F910F91FF90EF90DF90CF90BF902F
:1006F000AF907F906F905F904F9008958D9A81E0BA
:100700008093150180911401882321F08EE291E0FD
:100710000C94400A08950E9476066A9A729806C060
:100720008FE99FE00197F1F700C000000E948F065B
:100730008823B1F36A9A729A089582EF93E09093B6
:1007400089008093880010928B0010928A0010928A
:100750008D0010928C00E1E8F0E080818B7F808337
:1007600080818260808380818E7F808380818061B0
:100770008083808188608083E0E8F0E0808182600F
:10078000808380818160808380818062808380819A
:100790008F7E808380818860808380818B7F80834F
:1007A000089581E792E09093990080939800E1E7A3
:1007B000F0E0808182608083E1E9F0E08081846004
:1007C000808380818D7F808380818E7F8083808104
:1007D0008F7E8083808188608083E0E9F0E0808183
:1007E0008D7F808380818E7F80830895269A2E98C6
:1007F000279A2F983E9A46983F9A4798569A5E981D
:10080000579A5F98859A8D98869A8E98879A8F982E
:10081000209821982298239808951F920F920FB63E
:100820000F9211242F933F934F935F936F937F9376
:100830008F939F93AF93BF93EF93FF936E9A8EB175
:1008400090E489278EB96CE08EE291E00E94D40595
:1008500081E080933A01FF91EF91BF91AF919F9119
:100860008F917F916F915F914F913F912F910F9059
:100870000FBE0F901F9018951F920F920FB60F92F8
:1008800011248F939F936A9A8EB194E089278EB931
:1008900080911601882381F08091170190911801B1
:1008A000019690931801809317014A972CF08D9828
:1008B000109216016E9A769A9F918F910F900FBEAB
:1008C0000F901F901895CF93DF9310923A0180916B
:1008D00039018B3061F01CF4813091F405C0803413
:1008E00049F0843669F409C085E391E00BC08EE4D9
:1008F00091E008C087E691E005C08BE791E002C077
:1009000088E891E00E94400A86E991E00E94400A4E
:1009100080912E01813019F481EA91E002C085EACC
:1009200091E00E94400A89EA91E00E94400A8BEA25
:1009300091E00E94400A80912F01813019F486EBEA
:1009400091E002C08AEB91E00E94400AC1E0D0E051
:100950008EEB91E00E94400ACE010E94780A85EC5D
:1009600091E00E94400AFE01E15DFE4F808191818D
:100970000E94780A2296C930D10551F787EC91E0A0
:100980000E94400A80918A0090918B000E94780A10
:1009900084ED91E00E94400A80918C0090918D003E
:1009A0000E94780A81EE91E0DF91CF910C94400A89
:1009B000589A599A5A9A8CE08093B800E9E6F0E088
:1009C00080818062808380818F7E8083EA9A7894A0
:1009D000089584E88093BC008091BC0087FFFCCF21
:1009E0008091BB00089584E98093BC00089520E0C5
:1009F00030E08091BC0087FD06C02F5F3F4F83E051
:100A0000293E3807B1F781E093E0283E390709F421
:100A100080E008958093BB0084E88093BC000E942E
:100A2000F704882321F08091B900887F089580E041
:100A300008951F93DF93CF930F92CDB7DEB7182F92
:100A400084EA8093BC0069830E94F704698188234B
:100A500071F0812F880F662331F08F5F0E940A05A5
:100A6000883451F404C00E940A05803229F484E9D4
:100A70008093BC0080E001C081E00F90CF91DF91B6
:100A80001F910895CF93DF93C62FD42F60E00E946B
:100A90001905882379F08C2F0E940A05882351F0CC
:100AA0008D2F0E940A05882329F084E98093BC00D9
:100AB00081E001C080E0DF91CF910895CF93DF9373
:100AC000C82FD62F60E00E941905882389F08D2F4A
:100AD0000E940A05882361F084E98093BC008C2F72
:100AE00061E00E941905882319F00E94E90401C001
:100AF00080E0DF91CF910895DF93CF9300D00F92E4
:100B0000CDB7DEB74B836A8389830E94D80494EA09
:100B10009093BC0089816A814B819091BC0097FFC2
:100B2000FCCF90E59093BB0094E89093BC0090912B
:100B3000BC0097FFFCCF9091B900987F903229F4C8
:100B400084E98093BC0080E029C091E09093BB00D1
:100B500094E89093BC009091BC0097FFFCCF8093E9
:100B6000BB0084E88093BC008091BC0087FFFCCF71
:100B70006093BB0084E88093BC008091BC0087FF39
:100B8000FCCF4093BB0084E88093BC008091BC0004
:100B900087FFFCCF84E98093BC0081E00F900F9029
:100BA0000F90CF91DF91089524EA2093BC0020910B
:100BB000BC0027FFFCCF21E52093BB0024E8209355
:100BC000BC002091BC0027FFFCCF2091B900287FFA
:100BD0002834A9F024EC2093BC002091BC0027FF0E
:100BE000FCCF2091BB00261751F4FC0120E030E03F
:100BF000772767FD70956150704044EC10C084E920
:100C00008093BC0080E008954093BC005091BC00EC
:100C100057FFFCCF5091BB0051932F5F3F4F2617DA
:100C2000370794F344E84093BC004091BC0047FF71
:100C3000FCCF4091BB00820F931FFC01408384E9ED
:100C40008093BC0081E00895F89494EA9093BC00EE
:100C50009091BC0097FFFCCF90E59093BB0094E887
:100C60009093BC009091BC0097FFFCCF9091B9008D
:100C7000987F903231F484E98093BC00789480E0CE
:100C8000089593E09093BB0094E89093BC009091FA
:100C9000BC0097FFFCCF8093BB0084E88093BC002E
:100CA0008091BC0087FFFCCF862F972FFC0180E04E
:100CB00090E0552747FD509524E80AC031913093C4
:100CC000BB002093BC003091BC0037FFFCCF0196E5
:100CD000841795079CF384E98093BC00789481E0A5
:100CE00008958091E80080FFFCCF089581E0809313
:100CF000D70080EA8093D80082E189BD09B400FE64
:100D0000FDCF80E98093D8001092E00010923B0163
:100D100010923C018CE08093E200789408958091D9
:100D20003B0108959FB7F89480913B01882339F0E7
:100D300083E08093E9008091E80085FD03C09FBFB8
:100D40008FEF08958091F1002091E80025FD03C008
:100D50002BE62093E8009FBF08959FB7F8948091F9
:100D60003B01882331F083E08093E9008091F20019
:100D700001C080E09FBF089580913B01882371F0FE
:100D80008FB7F89493E09093E9009BE602C09093AC
:100D9000E8002091E80025FDFACF8FBF08959091DB
:100DA0003B019923D1F19FB7F89424E02093E90007
:100DB00020913E01222341F02091E80025FD02C050
:100DC0009FBF2BC010923E012091E400275E34E0CB
:100DD0004091E80045FD12C09FBF9091E40092173A
:100DE00021F481E080933E0118C090913B0199234A
:100DF000B1F09FB7F8943093E900EACF8093F10007
:100E00008091E80085FD03C08AE38093E80085E0D7
:100E100080933D019FBF80E008958FEF08958FEF8D
:100E2000089590913B019923D9F09FB7F89424E05D
:100E30002093E9002091E80025FD03C09FBF8FEFBC
:100E400008958093F1008091E80085FD03C08AE356
:100E50008093E80085E080933D019FBF80E0089586
:100E60008FEF0895CF93DC0180913B01882309F433
:100E70001AC12FB7F89484E08093E90080913E0175
:100E8000882309F405C18091E80085FD02C02FBFC9
:100E90000AC110923E01FCC08091E400875E9091EF
:100EA000E80095FD13C02FBF9091E400981721F43E
:100EB00081E080933E01F7C090913B01992309F4B2
:100EC000F2C02FB7F894C093E900E9CF8091F20007
:100ED000E52FE81B8E2F90E06817790708F4E62FBE
:100EE0006E1B7109F0E0E134F10508F0C5C0EA5A63
:100EF000FF4FEE0FFF1F0590F491E02D09948D91A7
:100F00008093F1008D918093F1008D918093F10099
:100F10008D918093F1008D918093F1008D9180935C
:100F2000F1008D918093F1008D918093F1008D916E
:100F30008093F1008D918093F1008D918093F10069
:100F40008D918093F1008D918093F1008D9180932C
:100F5000F1008D918093F1008D918093F1008D913E
:100F60008093F1008D918093F1008D918093F10039
:100F70008D918093F1008D918093F1008D918093FC
:100F8000F1008D918093F1008D918093F1008D910E
:100F90008093F1008D918093F1008D918093F10009
:100FA0008D918093F1008D918093F1008D918093CC
:100FB000F1008D918093F1008D918093F1008D91DE
:100FC0008093F1008D918093F1008D918093F100D9
:100FD0008D918093F1008D918093F1008D9180939C
:100FE000F1008D918093F1008D918093F1008D91AE
:100FF0008093F1008D918093F1008D918093F100A9
:101000008D918093F1008D918093F1008D9180936B
:10101000F1008D918093F1008D918093F1008D917D
:101020008093F1008D918093F1008D918093F10078
:101030008D918093F1008D918093F1008D9180933B
:10104000F1008D918093F1008D918093F1008D914D
:101050008093F1008D918093F1008D918093F10048
:101060008D918093F1008D918093F1008D9180930B
:10107000F1008D918093F1008D918093F10080912A
:10108000E80085FD02C04093E80030933D0104C0B4
:10109000C4E050E44AE335E06115710509F0FCCE87
:1010A0002FBF80E001C08FEFCF9108958FB7F894E4
:1010B00090913D01992341F094E09093E9009AE3E7
:1010C0009093E80010923D018FBF0895809109012F
:1010D000089580910A01089580910B0108958091EF
:1010E0003C0108959FB7F89420913B01222339F0E9
:1010F00022E02093E9003091E80035FD03C09FBF56
:101100008FEF089531EA3093F10030E23093F1002F
:101110001092F1001092F1001092F1001092F10083
:101120002093F1001092F1008093F1001092F100F1
:101130008AE38093E8009FBF80E008951F920F929A
:101140000FB60F9211248F939F938091E10010921C
:10115000E10083FF11C01092E90091E09093EB0051
:101160001092EC0092E19093ED0098E09093F000E3
:1011700010923B0110923C0182FF13C080913B0111
:10118000882379F080913D01882359F08150809324
:101190003D01882331F484E08093E9008AE3809361
:1011A000E8009F918F910F900FBE0F901F901895A0
:1011B0001F920F920FB60F921124EF92FF920F938E
:1011C0001F932F933F934F935F936F937F938F93CF
:1011D0009F93AF93BF93EF93FF93DF93CF930F92C0
:1011E000CDB7DEB71092E9008091E80083FF2DC1F2
:1011F0002091F1003091F100E090F100FF24409146
:10120000F100942F80E0E82AF92A0091F10010E023
:101210004091F100942F80E0082B192B6091F10090
:10122000A091F10082EF8093E800363009F059C0B8
:101230008BEE91E09C0125503040FC0137974591A1
:1012400054914E155F05F9F4F901459154914017F9
:101250005107C9F42E5F3F4FF901859194912E5F9C
:101260003F4FF9012491462F50E07A2F60E0462B42
:10127000572B4F3F510519F010F04FEF50E0421738
:1012800050F4242F08C00796295F3F4FF2E08531C4
:101290009F0799F6DAC0AEEF4091E80050E0BA013E
:1012A0006570707061157105B9F342FDD1C0322FC0
:1012B000213108F030E1AC01632F07C0FA014F5F24
:1012C0005F4FE491E093F10061506623B9F7830F1B
:1012D000911D231BA093E8002223F1F63031E1F2A7
:1012E000B7C0353051F48EEF8093E8000E9471064C
:1012F0008E2D80688093E300ABC0393051F52223F6
:1013000009F0A3C0E0923B0110923C0110923D0114
:101310008EEF8093E80041E08EE092E04093E90098
:10132000FC010196E491E093EB00EE2369F09C014F
:101330002F5F3F4FFC0184918093EC00C90101961F
:10134000F90124912093ED004F5F453039F78EE18C
:1013500077C0383051F4203809F077C00E94710608
:1013600080913B018093F10048C0313279F4213AF9
:1013700009F06BC00E947106E5E0F1E08191809375
:10138000F10041E0EC30F407C9F737C03032A1F486
:10139000213209F05AC08091E80082FFFCCFE5E0DD
:1013A000F1E08091F100819381E0EC30F807C9F71A
:1013B0008BEF8093E80021C0323241F4213209F0F2
:1013C00044C0E0923C010E94710617C03323C9F467
:1013D00029830E9471062981223851F40093E90083
:1013E0009091EB0081E095FF80E01092E90001C050
:1013F00080E08093F1001092F1008EEF8093E8007E
:1014000027C0313011F0333001F52230F1F4E1140E
:10141000F104D9F40F77802F81508430B0F48EEF2F
:101420008093E8000093E900333079F089E18093FC
:10143000EB0081E090E002C0880F991F0A95E2F767
:101440008093EA001092EA0003C081E28093EB00EF
:101450000F90CF91DF91FF91EF91BF91AF919F914D
:101460008F917F916F915F914F913F912F911F913C
:101470000F91FF90EF900F900FBE0F901F90189557
:101480001F93CF93DF93EC01FE012196149111235A
:1014900049F01A3019F48DE00E94CF06812F0E9486
:1014A000CF06F2CFDF91CF911F9108958A3010F4CB
:1014B00090E301C097E3890F0E94CF060895CF9370
:1014C000C82F82958F700E94560A8C2F8F700E94B1
:1014D000560ACF910895CF93C82F892F0E945F0A93
:1014E0008C2F0E945F0ACF9108950E945F0A089591
:1014F000EF92FF920F931F93DF93CF93CDB7DEB799
:1015000027970FB6F894DEBF0FBECDBF8E010F5FD9
:101510001F4F27E0F80111922A95E9F7B8014AE038
:1015200050E00E941D1488E0E82EF12CEC0EFD1E08
:10153000F80181918F01882311F00E94CF060E15CA
:101540001F05B1F727960FB6F894DEBF0FBECDBFCB
:10155000CF91DF911F910F91FF90EF900895EF923F
:10156000FF920F931F93DF93CF9300D000D00F9281
:10157000CDB7DEB78E010F5F1F4F25E0F801119246
:101580002A95E9F7B8014AE050E00E94971496E0E6
:10159000E92EF12CEC0EFD1EF80181918F018823BC
:1015A00011F00E94CF060E151F05B1F70F900F9096
:1015B0000F900F900F90CF91DF911F910F91FF909F
:1015C000EF900895EF92FF920F931F93DF93CF93C5
:1015D000CDB7DEB72B970FB6F894DEBF0FBECDBFE9
:1015E0008E010F5F1F4F2BE0F80111922A95E9F74A
:1015F000A8012AE030E00E943E142CE0E22EF12CFB
:10160000EC0EFD1EF80181918F01882311F00E94DC
:10161000CF060E151F05B1F72B960FB6F894DEBF57
:101620000FBECDBFCF91DF911F910F91FF90EF9033
:101630000895EF92FF920F931F93DF93CF93CDB74F
:10164000DEB72A970FB6F894DEBF0FBECDBF8E016E
:101650000F5F1F4F2AE0F80111922A95E9F7A801C0
:101660002AE030E00E9472143BE0E32EF12CEC0EF5
:10167000FD1EF80181918F01882311F00E94CF0691
:101680000E151F05B1F72A960FB6F894DEBF0FBEF0
:10169000CDBFCF91DF911F910F91FF90EF900895F3
:1016A000CF93DF93D82FC62F843008F05EC064300C
:1016B00008F05BC00E94D8048FEF95EAAEE081503D
:1016C0009040A040E1F700C0000089E665E70E9475
:1016D0005E05883609F049C089E66BE641E00E9464
:1016E00042054D2F440F440F440F89E66CE10E94E0
:1016F00042054C2F440F440F440F89E66BE10E94D2
:10170000420589E667E342E00E9442058EE162E01D
:1017100040E00E94420589E667E340E00E944205FE
:1017200089E664E34EE10E94420589E667E641E00E
:101730000E94420589E664E24DE10E94420589E685
:1017400065E24EE90E94420589E666E243E00E94B6
:10175000420589E667E246E90E94420589E66AE6B3
:1017600040E20E94420581E001C080E0DF91CF911C
:101770000895EF92FF920F931F93DF93CF93CDB70E
:10178000DEB765970FB6F894DEBF0FBECDBF8C01F4
:101790007E010894E11CF11C9EE489E6692F9D8B73
:1017A0000E945E05D7018D937D019D8991509A33EA
:1017B000A1F7FE01319686859785D80115969C93F1
:1017C0008E931497868197811B969C938E931A977C
:1017D00089819A8151969C938E93509780899189A3
:1017E00013969C938E9312978085918519969C935E
:1017F0008E931897828193811F969C938E931E9748
:101800008289938911969C938E93828593851796EE
:101810009C938E931697848195811D969C938E93AD
:101820001C9781E065960FB6F894DEBF0FBECDBF62
:10183000CF91DF911F910F91FF90EF900895EF925C
:10184000FF920F931F93DF93CF93CDB7DEB7279708
:101850000FB6F894DEBF0FBECDBF8C017E01089499
:10186000E11CF11C90E489E6692F9F830E945E05CC
:10187000D7018D937D019F8191509A33A1F7FE018D
:10188000319689819A81D80115969C938E931497ED
:101890008281938113969C938E9312978481958174
:1018A00011969C938E9381E027960FB6F894DEBF35
:1018B0000FBECDBFCF91DF911F910F91FF90EF90A1
:1018C0000895EF92FF920F931F93DF93CF93CDB7BD
:1018D000DEB727970FB6F894DEBF0FBECDBF8C01E1
:1018E0007E010894E11CF11C98E489E6692F9F832E
:1018F0000E945E05D7018D937D019F8191509234A6
:10190000A1F7FE01319689819A81D80115969C93A1
:101910008E9314978281938113969C938E93129742
:101920008481958111969C938E9381E027960FB6C2
:10193000F894DEBF0FBECDBFCF91DF911F910F9105
:10194000FF90EF900895EF92FF920F931F93DF9314
:10195000CF93CDB7DEB727970FB6F894DEBF0FBE93
:10196000CDBF8C017E010894E11CF11C9EE489E648
:10197000692F9F830E945E05D7018D937D019F8112
:1019800091509834A1F7FE01319689819A81D8014E
:1019900015969C938E9314978281938113969C93B2
:1019A0008E9312978481958111969C938E9381E0FA
:1019B00027960FB6F894DEBF0FBECDBFCF91DF9153
:1019C0001F910F91FF90EF90089565E048E30E940A
:1019D000420591E0882309F490E0892F08951F9330
:1019E000CF93DF93D82FC62F142F0E945E05C230ED
:1019F00058F4E1E0F0E002C0EE0FFF1F1A95E2F7A5
:101A00004E2F409548230DC09C2F9251923078F470
:101A100021E030E002C0220F331F1A95E2F7482F71
:101A2000422B8D2F6C2F0E94420581E001C080E087
:101A3000DF91CF911F9108951F93CF93DF93D82FFC
:101A4000C62F142F0E945E059C2F9251923058F49D
:101A5000E1E0F0E002C0EE0FFF1F1A95E2F74E2F13
:101A6000409548230BC0C23078F421E030E002C03A
:101A7000220F331F1A95E2F7482F422B8D2F6C2F20
:101A80000E94420581E001C080E0DF91CF911F916B
:101A90000895DF93CF930F92CDB7DEB749830E94AD
:101AA0005E0590E0498102C0959587954A95E2F7D9
:101AB00081700F90CF91DF91089520E030E0809108
:101AC000BC0087FD06C02F5F3F4F83E0293E3807EB
:101AD000B1F781E093E0283E390709F480E00895EA
:101AE0008093BB0084E88093BC000E945D0D882336
:101AF00021F08091B900887F089580E00895CF9308
:101B0000C82F84EA8093BC000E945D0D882351F0A9
:101B10008C2F880F8F5F0E94700D883429F484E920
:101B20008093BC0080E001C081E0CF910895CF9305
:101B3000C82F84EA8093BC000E945D0D882349F081
:101B40008C2F880F0E94700D803229F484E98093D5
:101B5000BC0080E001C081E0CF910895EF92FF9238
:101B60000F931F93DF93CF93CDB7DEB760970FB678
:101B7000F894DEBF0FBECDBFF82EE92E8E010F5FA9
:101B80001F4F80E1F80111928A95E9F788E50E94DC
:101B9000970D882309F463C086E30E94700D8823A3
:101BA00009F45DC084E98093BC00F5E8FA95F1F78B
:101BB000000088E50E947F0D882309F450C0F801D9
:101BC0009E01205F3F4F84EC8093BC009091BC004D
:101BD00097FFFCCF9091BB009193E217F307A1F719
:101BE00084E88093BC008091BC0087FFFCCF80918B
:101BF000BB00888B84E98093BC00FE013296C7014C
:101C0000A92FBE2D035F1F4F228130E0C9018073D1
:101C1000907054E0880F991F5A95E1F74081840F26
:101C2000911D11969C938E93C901807C9070880FB2
:101C3000991F880F991F4181840F911D13969C93C2
:101C40008E9312972F70307015963C932E931497A5
:101C500033961696E017F107B9F681E001C080E0EF
:101C600060960FB6F894DEBF0FBECDBFCF91DF9167
:101C70001F910F91FF90EF900895CF930E94D80489
:101C800088E50E94970D882309F4C2C080E30E9472
:101C9000700D882309F4BCC081E00E94700D882378
:101CA00009F4B6C084E98093BC008FE39CE90197F6
:101CB000F1F700C0000088E50E94970D882309F421
:101CC000A7C080E00E94700D882309F4A1C080E0C5
:101CD0000E94700D882309F49BC080E00E94700D63
:101CE000882309F495C080E00E94700D882309F4D0
:101CF0008FC080E00E94700D882309F489C080E0C5
:101D00000E94700D882309F483C080E00E94700D4A
:101D1000882309F47DC080E90E94700D882309F4AE
:101D200077C0C4E9C093BC008FE39CE90197F1F749
:101D300000C0000088E50E94970D882309F468C060
:101D400087E00E94700D882309F462C080E00E9441
:101D5000700D882309F45CC081E40E94700D882313
:101D600009F456C0C093BC008FE39CE90197F1F7DA
:101D700000C0000088E50E94970D882309F448C040
:101D80008AE10E94700D882309F442C080E40E9419
:101D9000700D8823E9F180E00E94700D8823C1F165
:101DA000C093BC008FE39CE90197F1F700C00000ED
:101DB00088E50E94970D882359F183E30E94700DF6
:101DC000882331F183E00E94700D882309F1C093CC
:101DD000BC008FE39CE90197F1F700C0000088E5A3
:101DE0000E94970D8823A1F080E30E94700D882344
:101DF00079F088E00E94700D882351F0C093BC00F8
:101E00008FE39CE90197F1F700C0000081E001C079
:101E100080E0CF91089584E98093BC000895A0E00C
:101E2000B0E0E5E1FFE00C94CF133C01CB01EA0107
:101E3000D3012C91223008F43EC1FB0130813230B5
:101E400008F436C1243071F4343009F034C11196ED
:101E50002C918181281709F42EC1BCE06B2EB1E0D2
:101E60007B2E29C1343009F423C1323091F4223061
:101E700009F021C128E0F301DA0101900D922A95C1
:101E8000E1F7DB0111968C91F3019181892389831C
:101E900011C1223009F40CC1D3011296ED91FC91CD
:101EA0001397DB0112966D917C911397D3011496D1
:101EB0000D911D912D913C911797DC011496CD90B9
:101EC000DD90ED90FC901797AF01461B570BDA01A0
:101ED00057FF04C0AA27BB27A41BB50BA032B1052E
:101EE0000CF065C0141615067CF5B701A6010A2E84
:101EF00004C076956795579547950A94D2F7812C3B
:101F0000912C5401839404C0880C991CAA1CBB1CFE
:101F1000AA95D2F7B1E08B1A9108A108B1088C20DC
:101F20009D20AE20BF20C12CD12C7601C3948114FA
:101F30009104A104B10419F4C12CD12C7601C42A56
:101F4000D52AE62AF72A3EC0452BE1F1EA0FFB1F0E
:101F5000B901A8010A2E04C0769567955795479553
:101F60000A94D2F7812C912C5401839404C0880CDC
:101F7000991CAA1CBB1CAA95D2F7A1E08A1A910849
:101F8000A108B10880229122A222B32201E010E030
:101F900020E030E081149104A104B10419F400E0C0
:101FA00010E09801042B152B262B372B0BC06E1736
:101FB0007F0724F4C12CD12C760104C0FB0100E082
:101FC00010E09801D30111964C91DC0111968C918F
:101FD000481709F442C0442349F0D701C601801BC9
:101FE000910BA20BB30B8C019D0104C00C191D09B0
:101FF0002E093F0937FD04C01982FB83EA830BC019
:1020000081E08983FB83EA833095209510950195C3
:102010001F4F2F4F3F4F0C831D832E833F830DC0D7
:10202000880F991FAA1FBB1F8C839D83AE83BF831C
:102030008A819B8101979B838A838C819D81AE815C
:10204000BF818C019D0101501109210931090F3F08
:102050001F4F2F4F3F4320F30BC04983FB83EA837D
:102060000C0D1D1D2E1D3F1D0C831D832E833F83D4
:1020700083E088830C811D812E813F8137FF1AC048
:10208000D901C80181709927AA27BB2736952795C2
:1020900017950795802B912BA22BB32B8C839D83B7
:1020A000AE83BF838A819B8101969B838A8302C012
:1020B0003C0101C03E01C301CDB7DEB7EEE00C9498
:1020C000EB13A0E2B0E0E7E6F0E10C94DB136D8FD8
:1020D0007E8F8F8F98A3298F3A8F4B8F5C8FBE0195
:1020E0006F5E7F4FCE014D960E940E13BE01675F5B
:1020F0007F4FCE0149960E940E13AE014F5F5F4F96
:10210000BE01675F7F4FCE0141960E940F0F0E9474
:102110004D12A096E2E00C94F713A0E2B0E0E3E9E0
:10212000F0E10C94DB136D8F7E8F8F8F98A3298F36
:102130003A8F4B8F5C8FBE016F5E7F4FCE014D9605
:102140000E940E13BE01675F7F4FCE0149960E9429
:102150000E138A8591E089278A87AE014F5F5F4F12
:10216000BE01675F7F4FCE0141960E940F0F0E9414
:102170004D12A096E2E00C94F713A0E2B0E0E3EC7D
:10218000F0E10C94CD136D8F7E8F8F8F98A3298FE4
:102190003A8F4B8F5C8FBE016F5E7F4FCE014D96A5
:1021A0000E940E13BE01675F7F4FCE0149960E94C9
:1021B0000E139989923008F412C08985823008F490
:1021C0001AC0943021F4823009F4B4C008C08430BD
:1021D00021F4923009F4AEC00EC0923051F481E087
:1021E0002A899A85291301C080E08A8BCE01419605
:1021F000A3C0823051F481E02A899A85291301C055
:1022000080E08A87CE01099697C08D889E88AF8826
:10221000B88C0D851E852F853889E0E2F0E080E0DE
:1022200090E0DC01C12CD12C760140E050E0BA01F5
:1022300080FE18C0400F511F621F731F8C0D9D1D23
:10224000AE1DBF1D412C512C320143944017510744
:102250006207730718F0412C512C3201840D951D33
:10226000A61DB71DCC0CDD1CEE1CFF1C37FF02C0E9
:102270006894C0F8000F111F221F331FB694A79453
:10228000979487943197A1F62B893C89EB85FC853F
:102290002E0F3F1F2E5F3F4F3C832B8321E0EA89A7
:1022A0003A85E31301C020E02A83EB81FC810CC056
:1022B00080FF05C076956795579547957068B695E8
:1022C000A795979587953196B7FDF2CF9F010CC0E2
:1022D000880F991FAA1FBB1F77FD8160440F551FF0
:1022E000661F771F215031090097A105E0E4BE0762
:1022F00078F32B833C838C019D010F7711272227D4
:102300003327003411052105310559F487FD09C033
:10231000452B462B472B29F0805C9F4FAF4FBF4F7B
:1023200080788D839E83AF83B88783E08983CE01D5
:10233000019602C08CE091E00E944D12A096E0E16F
:102340000C94E913A8E0B0E0E8EAF1E10C94D913A9
:1023500023E029838B019C01002737FD039511277A
:1023600022273327402F0A836115710581059105C6
:1023700019F482E0898335C02EE130E03C832B8361
:10238000442371F061157105810520E8920771F110
:10239000002711279801061B170B280B390B02C0C9
:1023A0008B019C01C901B8010E9402140197181603
:1023B00019062CF00D831E832F83388712C0082E38
:1023C00004C0000F111F221F331F0A94D2F70D8380
:1023D0001E832F8338872EE130E0281B390B3C8386
:1023E0002B83CE0101960E944D1204C060E070E084
:1023F00080E09FEC2896E4E00C94F513ACE0B0E0AC
:10240000E4E0F2E10C94D91369877A878B879C8783
:10241000BE016F5F7F4FCE0109960E940E13898126
:10242000823091F1823080F1843041F48A818823B6
:1024300031F100E010E020E030E829C02B813C8140
:1024400037FD22C02F3131058CF78EE190E0821BE1
:10245000930B0D811E812F81388504C036952795F9
:10246000179507958A95D2F78A81882381F0309550
:102470002095109501951F4F2F4F3F4F08C00FEF2C
:102480001FEF2FEF3FE703C000E010E09801B80115
:10249000C9012C96E4E00C94F5130F931F93CF938E
:1024A000FC014481558166817781C18180818230C0
:1024B00020F460618FEF90E0A3C0843009F49BC0EA
:1024C000823009F492C0411551056105710509F486
:1024D0008FC02281338122388FEF38070CF057C02C
:1024E000E2E8FFEFE21BF30BEA31F10564F58A0144
:1024F0009B010E2E04C036952795179507950A94D3
:10250000D2F781E090E0A0E0B0E004C0880F991F0E
:10251000AA1FBB1FEA95D2F70197A109B10984232D
:102520009523A623B72341E050E060E070E0892BBB
:102530008A2B8B2B19F440E050E0BA01402B512B31
:10254000622B732B03C040E050E0BA01DB01CA01EB
:102550008F779927AA27BB2780349105A105B1055C
:1025600039F447FF09C0405C5F4F6F4F7F4F04C095
:10257000415C5F4F6F4F7F4F81E090E04115510507
:10258000610520E4720748F580E090E026C020381D
:1025900031058CF5DB01CA018F779927AA27BB2764
:1025A00080349105A105B10539F447FF09C0405CAD
:1025B0005F4F6F4F7F4F04C0415C5F4F6F4F7F4F46
:1025C00077FD04C0C90181589F4F07C07695679574
:1025D00057954795C90180589F4F97E07695679525
:1025E000579547959A95D1F70BC080E090E005C0CC
:1025F00080E090E005C08FEF90E040E050E0BA014D
:10260000982F9695C0FB97F9362F80FB37F9642FEA
:10261000752F832FCF911F910F910895CF92DF9245
:10262000EF92DC01FB01CC901196DC901197129691
:102630008C9112973FE7E32EE8226E2DA60170E001
:10264000982F991F9927991F13962C91822F880FE5
:10265000892B90E027FB222720F92183009729F579
:10266000411551056105710511F482E027C082E82A
:102670009FEF9383828327E0440F551F661F771FC8
:102680002A95D1F783E0808309C0440F551F661F48
:10269000771F82819381019793838283411551052E
:1026A000610580E4780788F320C08F3F910579F4B5
:1026B000411551056105710519F484E0808319C045
:1026C000E4FE03C081E0808310C010820EC08F57EB
:1026D00091099383828383E0808387E0440F551FB1
:1026E000661F771F8A95D1F770644483558366838C
:1026F0007783EF90DF90CF90089580E885BF85BF06
:102700008093610082E0809361000E94F6038091D3
:102710001401811103C08091210181110E948B035A
:102720000E949D030E94D1030E94D8044CE065E200
:1027300081E00E947C0560E070E080E090E00E9413
:10274000B902C1E080911501882371F01B9B0CC078
:1027500080911601811108C010921501C0931601D5
:10276000109218011092170180913A01882351F3B9
:1027700010923A010E944B0280912E01813021F08B
:1027800080912F018130F1F6809115018111DACF0E
:102790000E947E03D7CF2F923F924F925F926F920B
:1027A0007F928F929F92AF92BF92CF92DF92EF92E1
:1027B000FF920F931F93CF93DF93CDB7DEB7CA1B62
:1027C000DB0B0FB6F894DEBF0FBECDBF09942A888D
:1027D000398848885F846E847D848C849B84AA8435
:1027E000B984C884DF80EE80FD800C811B81AA81C2
:1027F000B981CE0FD11D0FB6F894DEBF0FBECDBF8D
:10280000ED0108950E940B1484FF0895CB010E94EE
:102810000B14805F0895AA27992329F4A85F982BA9
:1028200011F480E10895903118F4AD5F9295A3956D
:10283000990FE8F78A2F99270895FB019F01E894E3
:102840004230C4F04532B4F44A3029F497FB1EF408
:10285000909581959F4F642F77270E94BD14805DCE
:102860008A330CF0895D8193CB010097A1F716F4B0
:102870005DE251931082C9010C94AD14FA01CF931B
:10288000FF93EF93223044F1253234F5C22FE894C0
:10289000CA3049F497FB3EF4909580957095619508
:1028A0007F4F8F4F9F4F2C2F332744275527FF9360
:1028B000EF930E94D114EF91FF91605D6A330CF0A9
:1028C000695D6193B901CA016050704080409040D9
:1028D00051F716F4CDE2C19310828F919F91CF9161
:1028E0000C94AD14FA01CF93FF93EF932230CCF008
:1028F0002532BCF4C22F2C2F332744275527FF93B2
:10290000EF930E94D114EF91FF91605D6A330CF058
:10291000695D6193B901CA01605070408040904088
:1029200051F710828F919F91CF910C94AD14FB01C0
:102930009F01423074F0453264F4642F77270E947F
:10294000BD14805D8A330CF0895D8193CB010097C3
:10295000A1F71082C9010C94AD14DC01FC01672FB2
:1029600071917723E1F7329704C07C916D93708366
:102970006291AE17BF07C8F30895AA1BBB1B51E1B4
:1029800007C0AA1FBB1FA617B70710F0A61BB70BDF
:10299000881F991F5A95A9F780959095BC01CD0184
:1029A0000895A1E21A2EAA1BBB1BFD010DC0AA1F90
:1029B000BB1FEE1FFF1FA217B307E407F50720F0A8
:1029C000A21BB30BE40BF50B661F771F881F991F23
:1029D0001A9469F760957095809590959B01AC016C
:0A29E000BD01CF010895F894FFCF68
:1029EA00010000803E00E100000000080000000035
:0429FA0000000000D9
:00000001FF
